{
  "address": "0x5FbDB2315678afecb367f032d93F642f64180aa3",
  "abi": [
    {
      "inputs": [
        {
          "internalType": "string",
          "name": "name",
          "type": "string"
        },
        {
          "internalType": "string",
          "name": "symbol",
          "type": "string"
        }
      ],
      "stateMutability": "nonpayable",
      "type": "constructor"
    },
    {
      "anonymous": false,
      "inputs": [
        {
          "indexed": true,
          "internalType": "address",
          "name": "owner",
          "type": "address"
        },
        {
          "indexed": true,
          "internalType": "address",
          "name": "approved",
          "type": "address"
        },
        {
          "indexed": true,
          "internalType": "uint256",
          "name": "tokenId",
          "type": "uint256"
        }
      ],
      "name": "Approval",
      "type": "event"
    },
    {
      "anonymous": false,
      "inputs": [
        {
          "indexed": true,
          "internalType": "address",
          "name": "owner",
          "type": "address"
        },
        {
          "indexed": true,
          "internalType": "address",
          "name": "operator",
          "type": "address"
        },
        {
          "indexed": false,
          "internalType": "bool",
          "name": "approved",
          "type": "bool"
        }
      ],
      "name": "ApprovalForAll",
      "type": "event"
    },
    {
      "anonymous": false,
      "inputs": [
        {
          "indexed": true,
          "internalType": "address",
          "name": "owner",
          "type": "address"
        },
        {
          "indexed": false,
          "internalType": "uint256",
          "name": "amount",
          "type": "uint256"
        }
      ],
      "name": "FundsWithdrawn",
      "type": "event"
    },
    {
      "anonymous": false,
      "inputs": [
        {
          "indexed": true,
          "internalType": "address",
          "name": "owner",
          "type": "address"
        },
        {
          "indexed": false,
          "internalType": "uint256",
          "name": "tokenId",
          "type": "uint256"
        }
      ],
      "name": "TicketMinted",
      "type": "event"
    },
    {
      "anonymous": false,
      "inputs": [
        {
          "indexed": true,
          "internalType": "address",
          "name": "owner",
          "type": "address"
        },
        {
          "indexed": false,
          "internalType": "uint256",
          "name": "tokenId",
          "type": "uint256"
        }
      ],
      "name": "TicketRemoved",
      "type": "event"
    },
    {
      "anonymous": false,
      "inputs": [
        {
          "indexed": true,
          "internalType": "address",
          "name": "from",
          "type": "address"
        },
        {
          "indexed": true,
          "internalType": "address",
          "name": "to",
          "type": "address"
        },
        {
          "indexed": true,
          "internalType": "uint256",
          "name": "tokenId",
          "type": "uint256"
        }
      ],
      "name": "Transfer",
      "type": "event"
    },
    {
      "inputs": [
        {
          "internalType": "address",
          "name": "to",
          "type": "address"
        },
        {
          "internalType": "uint256",
          "name": "tokenId",
          "type": "uint256"
        }
      ],
      "name": "approve",
      "outputs": [],
      "stateMutability": "nonpayable",
      "type": "function"
    },
    {
      "inputs": [
        {
          "internalType": "address",
          "name": "owner",
          "type": "address"
        }
      ],
      "name": "balanceOf",
      "outputs": [
        {
          "internalType": "uint256",
          "name": "",
          "type": "uint256"
        }
      ],
      "stateMutability": "view",
      "type": "function"
    },
    {
      "inputs": [
        {
          "internalType": "uint256",
          "name": "tokenId",
          "type": "uint256"
        }
      ],
      "name": "getApproved",
      "outputs": [
        {
          "internalType": "address",
          "name": "",
          "type": "address"
        }
      ],
      "stateMutability": "view",
      "type": "function"
    },
    {
      "inputs": [
        {
          "internalType": "address",
          "name": "owner",
          "type": "address"
        },
        {
          "internalType": "address",
          "name": "operator",
          "type": "address"
        }
      ],
      "name": "isApprovedForAll",
      "outputs": [
        {
          "internalType": "bool",
          "name": "",
          "type": "bool"
        }
      ],
      "stateMutability": "view",
      "type": "function"
    },
    {
      "inputs": [],
      "name": "mint",
      "outputs": [],
      "stateMutability": "payable",
      "type": "function"
    },
    {
      "inputs": [],
      "name": "name",
      "outputs": [
        {
          "internalType": "string",
          "name": "",
          "type": "string"
        }
      ],
      "stateMutability": "view",
      "type": "function"
    },
    {
      "inputs": [
        {
          "internalType": "uint256",
          "name": "tokenId",
          "type": "uint256"
        }
      ],
      "name": "ownerOf",
      "outputs": [
        {
          "internalType": "address",
          "name": "",
          "type": "address"
        }
      ],
      "stateMutability": "view",
      "type": "function"
    },
    {
      "inputs": [],
      "name": "readTicketPrice",
      "outputs": [
        {
          "internalType": "uint256",
          "name": "",
          "type": "uint256"
        }
      ],
      "stateMutability": "view",
      "type": "function"
    },
    {
      "inputs": [
        {
          "internalType": "uint256",
          "name": "tokenId",
          "type": "uint256"
        }
      ],
      "name": "removeTicket",
      "outputs": [],
      "stateMutability": "nonpayable",
      "type": "function"
    },
    {
      "inputs": [
        {
          "internalType": "address",
          "name": "from",
          "type": "address"
        },
        {
          "internalType": "address",
          "name": "to",
          "type": "address"
        },
        {
          "internalType": "uint256",
          "name": "tokenId",
          "type": "uint256"
        }
      ],
      "name": "safeTransferFrom",
      "outputs": [],
      "stateMutability": "nonpayable",
      "type": "function"
    },
    {
      "inputs": [
        {
          "internalType": "address",
          "name": "from",
          "type": "address"
        },
        {
          "internalType": "address",
          "name": "to",
          "type": "address"
        },
        {
          "internalType": "uint256",
          "name": "tokenId",
          "type": "uint256"
        },
        {
          "internalType": "bytes",
          "name": "data",
          "type": "bytes"
        }
      ],
      "name": "safeTransferFrom",
      "outputs": [],
      "stateMutability": "nonpayable",
      "type": "function"
    },
    {
      "inputs": [
        {
          "internalType": "address",
          "name": "operator",
          "type": "address"
        },
        {
          "internalType": "bool",
          "name": "approved",
          "type": "bool"
        }
      ],
      "name": "setApprovalForAll",
      "outputs": [],
      "stateMutability": "nonpayable",
      "type": "function"
    },
    {
      "inputs": [
        {
          "internalType": "bytes4",
          "name": "interfaceId",
          "type": "bytes4"
        }
      ],
      "name": "supportsInterface",
      "outputs": [
        {
          "internalType": "bool",
          "name": "",
          "type": "bool"
        }
      ],
      "stateMutability": "view",
      "type": "function"
    },
    {
      "inputs": [],
      "name": "symbol",
      "outputs": [
        {
          "internalType": "string",
          "name": "",
          "type": "string"
        }
      ],
      "stateMutability": "view",
      "type": "function"
    },
    {
      "inputs": [
        {
          "internalType": "uint256",
          "name": "index",
          "type": "uint256"
        }
      ],
      "name": "tokenByIndex",
      "outputs": [
        {
          "internalType": "uint256",
          "name": "",
          "type": "uint256"
        }
      ],
      "stateMutability": "view",
      "type": "function"
    },
    {
      "inputs": [
        {
          "internalType": "address",
          "name": "owner",
          "type": "address"
        },
        {
          "internalType": "uint256",
          "name": "index",
          "type": "uint256"
        }
      ],
      "name": "tokenOfOwnerByIndex",
      "outputs": [
        {
          "internalType": "uint256",
          "name": "",
          "type": "uint256"
        }
      ],
      "stateMutability": "view",
      "type": "function"
    },
    {
      "inputs": [
        {
          "internalType": "uint256",
          "name": "tokenId",
          "type": "uint256"
        }
      ],
      "name": "tokenURI",
      "outputs": [
        {
          "internalType": "string",
          "name": "",
          "type": "string"
        }
      ],
      "stateMutability": "view",
      "type": "function"
    },
    {
      "inputs": [],
      "name": "totalSupply",
      "outputs": [
        {
          "internalType": "uint256",
          "name": "",
          "type": "uint256"
        }
      ],
      "stateMutability": "view",
      "type": "function"
    },
    {
      "inputs": [
        {
          "internalType": "address",
          "name": "from",
          "type": "address"
        },
        {
          "internalType": "address",
          "name": "to",
          "type": "address"
        },
        {
          "internalType": "uint256",
          "name": "tokenId",
          "type": "uint256"
        }
      ],
      "name": "transferFrom",
      "outputs": [],
      "stateMutability": "nonpayable",
      "type": "function"
    },
    {
      "inputs": [],
      "name": "withdrawFunds",
      "outputs": [],
      "stateMutability": "nonpayable",
      "type": "function"
    }
  ],
  "transactionHash": "0x5750496598c9df93dfdbfef285595878962a0f7eeedb79adb69b247723ee4317",
  "args": [
    "Access Ticket",
    "TICKET"
  ],
  "numDeployments": 1,
  "solcInputHash": "7beb313818224e3d8ac385d69e6280a6",
  "bytecode": "0x60806040526103e8600c553480156200001757600080fd5b5060405162003d6938038062003d6983398181016040528101906200003d919062000241565b8181816000908162000050919062000511565b50806001908162000062919062000511565b50505033600a60006101000a81548173ffffffffffffffffffffffffffffffffffffffff021916908373ffffffffffffffffffffffffffffffffffffffff1602179055505050620005f8565b6000604051905090565b600080fd5b600080fd5b600080fd5b600080fd5b6000601f19601f8301169050919050565b7f4e487b7100000000000000000000000000000000000000000000000000000000600052604160045260246000fd5b6200011782620000cc565b810181811067ffffffffffffffff82111715620001395762000138620000dd565b5b80604052505050565b60006200014e620000ae565b90506200015c82826200010c565b919050565b600067ffffffffffffffff8211156200017f576200017e620000dd565b5b6200018a82620000cc565b9050602081019050919050565b60005b83811015620001b75780820151818401526020810190506200019a565b60008484015250505050565b6000620001da620001d48462000161565b62000142565b905082815260208101848484011115620001f957620001f8620000c7565b5b6200020684828562000197565b509392505050565b600082601f830112620002265762000225620000c2565b5b815162000238848260208601620001c3565b91505092915050565b600080604083850312156200025b576200025a620000b8565b5b600083015167ffffffffffffffff8111156200027c576200027b620000bd565b5b6200028a858286016200020e565b925050602083015167ffffffffffffffff811115620002ae57620002ad620000bd565b5b620002bc858286016200020e565b9150509250929050565b600081519050919050565b7f4e487b7100000000000000000000000000000000000000000000000000000000600052602260045260246000fd5b600060028204905060018216806200031957607f821691505b6020821081036200032f576200032e620002d1565b5b50919050565b60008190508160005260206000209050919050565b60006020601f8301049050919050565b600082821b905092915050565b600060088302620003997fffffffffffffffffffffffffffffffffffffffffffffffffffffffffffffffff826200035a565b620003a586836200035a565b95508019841693508086168417925050509392505050565b6000819050919050565b6000819050919050565b6000620003f2620003ec620003e684620003bd565b620003c7565b620003bd565b9050919050565b6000819050919050565b6200040e83620003d1565b620004266200041d82620003f9565b84845462000367565b825550505050565b600090565b6200043d6200042e565b6200044a81848462000403565b505050565b5b8181101562000472576200046660008262000433565b60018101905062000450565b5050565b601f821115620004c1576200048b8162000335565b62000496846200034a565b81016020851015620004a6578190505b620004be620004b5856200034a565b8301826200044f565b50505b505050565b600082821c905092915050565b6000620004e660001984600802620004c6565b1980831691505092915050565b6000620005018383620004d3565b9150826002028217905092915050565b6200051c82620002c6565b67ffffffffffffffff811115620005385762000537620000dd565b5b62000544825462000300565b6200055182828562000476565b600060209050601f83116001811462000589576000841562000574578287015190505b620005808582620004f3565b865550620005f0565b601f198416620005998662000335565b60005b82811015620005c3578489015182556001820191506020850194506020810190506200059c565b86831015620005e35784890151620005df601f891682620004d3565b8355505b6001600288020188555050505b505050505050565b61376180620006086000396000f3fe60806040526004361061011f5760003560e01c806342842e0e116100a0578063a22cb46511610064578063a22cb465146103da578063a8dd0a8214610403578063b88d4fde1461042c578063c87b56dd14610455578063e985e9c5146104925761011f565b806342842e0e146102cf5780634f6ccce7146102f85780636352211e1461033557806370a082311461037257806395d89b41146103af5761011f565b806318160ddd116100e757806318160ddd146101fc57806323b872dd1461022757806324600fc3146102505780632f745c59146102675780633bde4439146102a45761011f565b806301ffc9a71461012457806306fdde0314610161578063081812fc1461018c578063095ea7b3146101c95780631249c58b146101f2575b600080fd5b34801561013057600080fd5b5061014b600480360381019061014691906124ea565b6104cf565b6040516101589190612532565b60405180910390f35b34801561016d57600080fd5b50610176610549565b60405161018391906125dd565b60405180910390f35b34801561019857600080fd5b506101b360048036038101906101ae9190612635565b6105db565b6040516101c091906126a3565b60405180910390f35b3480156101d557600080fd5b506101f060048036038101906101eb91906126ea565b610621565b005b6101fa610738565b005b34801561020857600080fd5b5061021161092d565b60405161021e9190612739565b60405180910390f35b34801561023357600080fd5b5061024e60048036038101906102499190612754565b61093a565b005b34801561025c57600080fd5b5061026561099a565b005b34801561027357600080fd5b5061028e600480360381019061028991906126ea565b610ae9565b60405161029b9190612739565b60405180910390f35b3480156102b057600080fd5b506102b9610b8e565b6040516102c69190612739565b60405180910390f35b3480156102db57600080fd5b506102f660048036038101906102f19190612754565b610b98565b005b34801561030457600080fd5b5061031f600480360381019061031a9190612635565b610bb8565b60405161032c9190612739565b60405180910390f35b34801561034157600080fd5b5061035c60048036038101906103579190612635565b610c29565b60405161036991906126a3565b60405180910390f35b34801561037e57600080fd5b50610399600480360381019061039491906127a7565b610caf565b6040516103a69190612739565b60405180910390f35b3480156103bb57600080fd5b506103c4610d66565b6040516103d191906125dd565b60405180910390f35b3480156103e657600080fd5b5061040160048036038101906103fc9190612800565b610df8565b005b34801561040f57600080fd5b5061042a60048036038101906104259190612635565b610e0e565b005b34801561043857600080fd5b50610453600480360381019061044e9190612975565b610e68565b005b34801561046157600080fd5b5061047c60048036038101906104779190612635565b610eca565b60405161048991906125dd565b60405180910390f35b34801561049e57600080fd5b506104b960048036038101906104b491906129f8565b610f9f565b6040516104c69190612532565b60405180910390f35b60007f780e9d63000000000000000000000000000000000000000000000000000000007bffffffffffffffffffffffffffffffffffffffffffffffffffffffff1916827bffffffffffffffffffffffffffffffffffffffffffffffffffffffff19161480610542575061054182611033565b5b9050919050565b60606000805461055890612a67565b80601f016020809104026020016040519081016040528092919081815260200182805461058490612a67565b80156105d15780601f106105a6576101008083540402835291602001916105d1565b820191906000526020600020905b8154815290600101906020018083116105b457829003601f168201915b5050505050905090565b60006105e682611115565b6004600083815260200190815260200160002060009054906101000a900473ffffffffffffffffffffffffffffffffffffffff169050919050565b600061062c82610c29565b90508073ffffffffffffffffffffffffffffffffffffffff168373ffffffffffffffffffffffffffffffffffffffff160361069c576040517f08c379a000000000000000000000000000000000000000000000000000000000815260040161069390612b0a565b60405180910390fd5b8073ffffffffffffffffffffffffffffffffffffffff166106bb611160565b73ffffffffffffffffffffffffffffffffffffffff1614806106ea57506106e9816106e4611160565b610f9f565b5b610729576040517f08c379a000000000000000000000000000000000000000000000000000000000815260040161072090612b9c565b60405180910390fd5b6107338383611168565b505050565b600c54341461077c576040517f08c379a000000000000000000000000000000000000000000000000000000000815260040161077390612c2e565b60405180910390fd5b73e5ca461cf9ff63143de899d1af8ae112ef6850ca73ffffffffffffffffffffffffffffffffffffffff163373ffffffffffffffffffffffffffffffffffffffff1614158061080b5750732f44998bdfb94f770ae756ddc9c47c32dea168df73ffffffffffffffffffffffffffffffffffffffff163373ffffffffffffffffffffffffffffffffffffffff1614155b1561085c57600061081b33610caf565b1461085b576040517f08c379a000000000000000000000000000000000000000000000000000000000815260040161085290612cc0565b60405180910390fd5b5b60c8600b54106108a1576040517f08c379a000000000000000000000000000000000000000000000000000000000815260040161089890612d52565b60405180910390fd5b6000600b600081546108b290612da1565b91905081905590506108c43382611221565b600b60008154809291906108d790612da1565b91905055503373ffffffffffffffffffffffffffffffffffffffff167fe3bc6f5972e89b7adec47f0277204f27cd981570e200dd4d408093535c9e8e69826040516109229190612739565b60405180910390a250565b6000600880549050905090565b61094b610945611160565b8261123f565b61098a576040517f08c379a000000000000000000000000000000000000000000000000000000000815260040161098190612e5b565b60405180910390fd5b6109958383836112d4565b505050565b600a60009054906101000a900473ffffffffffffffffffffffffffffffffffffffff1673ffffffffffffffffffffffffffffffffffffffff163373ffffffffffffffffffffffffffffffffffffffff1614610a2a576040517f08c379a0000000000000000000000000000000000000000000000000000000008152600401610a2190612eed565b60405180910390fd5b6000479050600a60009054906101000a900473ffffffffffffffffffffffffffffffffffffffff1673ffffffffffffffffffffffffffffffffffffffff166108fc829081150290604051600060405180830381858888f19350505050158015610a97573d6000803e3d6000fd5b503373ffffffffffffffffffffffffffffffffffffffff167feaff4b37086828766ad3268786972c0cd24259d4c87a80f9d3963a3c3d999b0d82604051610ade9190612739565b60405180910390a250565b6000610af483610caf565b8210610b35576040517f08c379a0000000000000000000000000000000000000000000000000000000008152600401610b2c90612f7f565b60405180910390fd5b600660008473ffffffffffffffffffffffffffffffffffffffff1673ffffffffffffffffffffffffffffffffffffffff168152602001908152602001600020600083815260200190815260200160002054905092915050565b6000600c54905090565b610bb383838360405180602001604052806000815250610e68565b505050565b6000610bc261092d565b8210610c03576040517f08c379a0000000000000000000000000000000000000000000000000000000008152600401610bfa90613011565b60405180910390fd5b60088281548110610c1757610c16613031565b5b90600052602060002001549050919050565b600080610c35836115cd565b9050600073ffffffffffffffffffffffffffffffffffffffff168173ffffffffffffffffffffffffffffffffffffffff1603610ca6576040517f08c379a0000000000000000000000000000000000000000000000000000000008152600401610c9d906130ac565b60405180910390fd5b80915050919050565b60008073ffffffffffffffffffffffffffffffffffffffff168273ffffffffffffffffffffffffffffffffffffffff1603610d1f576040517f08c379a0000000000000000000000000000000000000000000000000000000008152600401610d169061313e565b60405180910390fd5b600360008373ffffffffffffffffffffffffffffffffffffffff1673ffffffffffffffffffffffffffffffffffffffff168152602001908152602001600020549050919050565b606060018054610d7590612a67565b80601f0160208091040260200160405190810160405280929190818152602001828054610da190612a67565b8015610dee5780601f10610dc357610100808354040283529160200191610dee565b820191906000526020600020905b815481529060010190602001808311610dd157829003601f168201915b5050505050905090565b610e0a610e03611160565b838361160a565b5050565b610e1781611776565b3373ffffffffffffffffffffffffffffffffffffffff167f4813f5543c1ff98cdedd0a2533eb0e4a553087eb3e6fc5aff23f46dfe2cc2ed682604051610e5d9190612739565b60405180910390a250565b610e79610e73611160565b8361123f565b610eb8576040517f08c379a0000000000000000000000000000000000000000000000000000000008152600401610eaf90612e5b565b60405180910390fd5b610ec4848484846118c4565b50505050565b6060610ed582611920565b610f14576040517f08c379a0000000000000000000000000000000000000000000000000000000008152600401610f0b906131aa565b60405180910390fd5b60006040518060400160405280601a81526020017f687474703a2f2f6c6f63616c686f73742e636f6d3a333030302f00000000000081525090506000815111610f6c5760405180602001604052806000815250610f97565b80610f7684611961565b604051602001610f87929190613206565b6040516020818303038152906040525b915050919050565b6000600560008473ffffffffffffffffffffffffffffffffffffffff1673ffffffffffffffffffffffffffffffffffffffff16815260200190815260200160002060008373ffffffffffffffffffffffffffffffffffffffff1673ffffffffffffffffffffffffffffffffffffffff16815260200190815260200160002060009054906101000a900460ff16905092915050565b60007f80ac58cd000000000000000000000000000000000000000000000000000000007bffffffffffffffffffffffffffffffffffffffffffffffffffffffff1916827bffffffffffffffffffffffffffffffffffffffffffffffffffffffff191614806110fe57507f5b5e139f000000000000000000000000000000000000000000000000000000007bffffffffffffffffffffffffffffffffffffffffffffffffffffffff1916827bffffffffffffffffffffffffffffffffffffffffffffffffffffffff1916145b8061110e575061110d82611a2f565b5b9050919050565b61111e81611920565b61115d576040517f08c379a0000000000000000000000000000000000000000000000000000000008152600401611154906130ac565b60405180910390fd5b50565b600033905090565b816004600083815260200190815260200160002060006101000a81548173ffffffffffffffffffffffffffffffffffffffff021916908373ffffffffffffffffffffffffffffffffffffffff160217905550808273ffffffffffffffffffffffffffffffffffffffff166111db83610c29565b73ffffffffffffffffffffffffffffffffffffffff167f8c5be1e5ebec7d5bd14f71427d1e84f3dd0314c0f7b2291e5b200ac8c7c3b92560405160405180910390a45050565b61123b828260405180602001604052806000815250611a99565b5050565b60008061124b83610c29565b90508073ffffffffffffffffffffffffffffffffffffffff168473ffffffffffffffffffffffffffffffffffffffff16148061128d575061128c8185610f9f565b5b806112cb57508373ffffffffffffffffffffffffffffffffffffffff166112b3846105db565b73ffffffffffffffffffffffffffffffffffffffff16145b91505092915050565b8273ffffffffffffffffffffffffffffffffffffffff166112f482610c29565b73ffffffffffffffffffffffffffffffffffffffff161461134a576040517f08c379a00000000000000000000000000000000000000000000000000000000081526004016113419061329c565b60405180910390fd5b600073ffffffffffffffffffffffffffffffffffffffff168273ffffffffffffffffffffffffffffffffffffffff16036113b9576040517f08c379a00000000000000000000000000000000000000000000000000000000081526004016113b09061332e565b60405180910390fd5b6113c68383836001611af4565b8273ffffffffffffffffffffffffffffffffffffffff166113e682610c29565b73ffffffffffffffffffffffffffffffffffffffff161461143c576040517f08c379a00000000000000000000000000000000000000000000000000000000081526004016114339061329c565b60405180910390fd5b6004600082815260200190815260200160002060006101000a81549073ffffffffffffffffffffffffffffffffffffffff02191690556001600360008573ffffffffffffffffffffffffffffffffffffffff1673ffffffffffffffffffffffffffffffffffffffff168152602001908152602001600020600082825403925050819055506001600360008473ffffffffffffffffffffffffffffffffffffffff1673ffffffffffffffffffffffffffffffffffffffff16815260200190815260200160002060008282540192505081905550816002600083815260200190815260200160002060006101000a81548173ffffffffffffffffffffffffffffffffffffffff021916908373ffffffffffffffffffffffffffffffffffffffff160217905550808273ffffffffffffffffffffffffffffffffffffffff168473ffffffffffffffffffffffffffffffffffffffff167fddf252ad1be2c89b69c2b068fc378daa952ba7f163c4a11628f55a4df523b3ef60405160405180910390a46115c88383836001611c52565b505050565b60006002600083815260200190815260200160002060009054906101000a900473ffffffffffffffffffffffffffffffffffffffff169050919050565b8173ffffffffffffffffffffffffffffffffffffffff168373ffffffffffffffffffffffffffffffffffffffff1603611678576040517f08c379a000000000000000000000000000000000000000000000000000000000815260040161166f9061339a565b60405180910390fd5b80600560008573ffffffffffffffffffffffffffffffffffffffff1673ffffffffffffffffffffffffffffffffffffffff16815260200190815260200160002060008473ffffffffffffffffffffffffffffffffffffffff1673ffffffffffffffffffffffffffffffffffffffff16815260200190815260200160002060006101000a81548160ff0219169083151502179055508173ffffffffffffffffffffffffffffffffffffffff168373ffffffffffffffffffffffffffffffffffffffff167f17307eab39ab6107e8899845ad3d59bd9653f200f220920489ca2b5937696c31836040516117699190612532565b60405180910390a3505050565b600061178182610c29565b9050611791816000846001611af4565b61179a82610c29565b90506004600083815260200190815260200160002060006101000a81549073ffffffffffffffffffffffffffffffffffffffff02191690556001600360008373ffffffffffffffffffffffffffffffffffffffff1673ffffffffffffffffffffffffffffffffffffffff168152602001908152602001600020600082825403925050819055506002600083815260200190815260200160002060006101000a81549073ffffffffffffffffffffffffffffffffffffffff021916905581600073ffffffffffffffffffffffffffffffffffffffff168273ffffffffffffffffffffffffffffffffffffffff167fddf252ad1be2c89b69c2b068fc378daa952ba7f163c4a11628f55a4df523b3ef60405160405180910390a46118c0816000846001611c52565b5050565b6118cf8484846112d4565b6118db84848484611c58565b61191a576040517f08c379a00000000000000000000000000000000000000000000000000000000081526004016119119061342c565b60405180910390fd5b50505050565b60008073ffffffffffffffffffffffffffffffffffffffff16611942836115cd565b73ffffffffffffffffffffffffffffffffffffffff1614159050919050565b60606000600161197084611ddf565b01905060008167ffffffffffffffff81111561198f5761198e61284a565b5b6040519080825280601f01601f1916602001820160405280156119c15781602001600182028036833780820191505090505b509050600082602001820190505b600115611a24578080600190039150507f3031323334353637383961626364656600000000000000000000000000000000600a86061a8153600a8581611a1857611a1761344c565b5b049450600085036119cf575b819350505050919050565b60007f01ffc9a7000000000000000000000000000000000000000000000000000000007bffffffffffffffffffffffffffffffffffffffffffffffffffffffff1916827bffffffffffffffffffffffffffffffffffffffffffffffffffffffff1916149050919050565b611aa38383611f32565b611ab06000848484611c58565b611aef576040517f08c379a0000000000000000000000000000000000000000000000000000000008152600401611ae69061342c565b60405180910390fd5b505050565b611b008484848461214f565b6001811115611b44576040517f08c379a0000000000000000000000000000000000000000000000000000000008152600401611b3b906134ed565b60405180910390fd5b6000829050600073ffffffffffffffffffffffffffffffffffffffff168573ffffffffffffffffffffffffffffffffffffffff1603611b8b57611b8681612155565b611bca565b8373ffffffffffffffffffffffffffffffffffffffff168573ffffffffffffffffffffffffffffffffffffffff1614611bc957611bc8858261219e565b5b5b600073ffffffffffffffffffffffffffffffffffffffff168473ffffffffffffffffffffffffffffffffffffffff1603611c0c57611c078161230b565b611c4b565b8473ffffffffffffffffffffffffffffffffffffffff168473ffffffffffffffffffffffffffffffffffffffff1614611c4a57611c4984826123dc565b5b5b5050505050565b50505050565b6000611c798473ffffffffffffffffffffffffffffffffffffffff1661245b565b15611dd2578373ffffffffffffffffffffffffffffffffffffffff1663150b7a02611ca2611160565b8786866040518563ffffffff1660e01b8152600401611cc49493929190613562565b6020604051808303816000875af1925050508015611d0057506040513d601f19601f82011682018060405250810190611cfd91906135c3565b60015b611d82573d8060008114611d30576040519150601f19603f3d011682016040523d82523d6000602084013e611d35565b606091505b506000815103611d7a576040517f08c379a0000000000000000000000000000000000000000000000000000000008152600401611d719061342c565b60405180910390fd5b805181602001fd5b63150b7a0260e01b7bffffffffffffffffffffffffffffffffffffffffffffffffffffffff1916817bffffffffffffffffffffffffffffffffffffffffffffffffffffffff191614915050611dd7565b600190505b949350505050565b600080600090507a184f03e93ff9f4daa797ed6e38ed64bf6a1f0100000000000000008310611e3d577a184f03e93ff9f4daa797ed6e38ed64bf6a1f0100000000000000008381611e3357611e3261344c565b5b0492506040810190505b6d04ee2d6d415b85acef81000000008310611e7a576d04ee2d6d415b85acef81000000008381611e7057611e6f61344c565b5b0492506020810190505b662386f26fc100008310611ea957662386f26fc100008381611e9f57611e9e61344c565b5b0492506010810190505b6305f5e1008310611ed2576305f5e1008381611ec857611ec761344c565b5b0492506008810190505b6127108310611ef7576127108381611eed57611eec61344c565b5b0492506004810190505b60648310611f1a5760648381611f1057611f0f61344c565b5b0492506002810190505b600a8310611f29576001810190505b80915050919050565b600073ffffffffffffffffffffffffffffffffffffffff168273ffffffffffffffffffffffffffffffffffffffff1603611fa1576040517f08c379a0000000000000000000000000000000000000000000000000000000008152600401611f989061363c565b60405180910390fd5b611faa81611920565b15611fea576040517f08c379a0000000000000000000000000000000000000000000000000000000008152600401611fe1906136a8565b60405180910390fd5b611ff8600083836001611af4565b61200181611920565b15612041576040517f08c379a0000000000000000000000000000000000000000000000000000000008152600401612038906136a8565b60405180910390fd5b6001600360008473ffffffffffffffffffffffffffffffffffffffff1673ffffffffffffffffffffffffffffffffffffffff16815260200190815260200160002060008282540192505081905550816002600083815260200190815260200160002060006101000a81548173ffffffffffffffffffffffffffffffffffffffff021916908373ffffffffffffffffffffffffffffffffffffffff160217905550808273ffffffffffffffffffffffffffffffffffffffff16600073ffffffffffffffffffffffffffffffffffffffff167fddf252ad1be2c89b69c2b068fc378daa952ba7f163c4a11628f55a4df523b3ef60405160405180910390a461214b600083836001611c52565b5050565b50505050565b6008805490506009600083815260200190815260200160002081905550600881908060018154018082558091505060019003906000526020600020016000909190919091505550565b600060016121ab84610caf565b6121b591906136c8565b905060006007600084815260200190815260200160002054905081811461229a576000600660008673ffffffffffffffffffffffffffffffffffffffff1673ffffffffffffffffffffffffffffffffffffffff168152602001908152602001600020600084815260200190815260200160002054905080600660008773ffffffffffffffffffffffffffffffffffffffff1673ffffffffffffffffffffffffffffffffffffffff168152602001908152602001600020600084815260200190815260200160002081905550816007600083815260200190815260200160002081905550505b6007600084815260200190815260200160002060009055600660008573ffffffffffffffffffffffffffffffffffffffff1673ffffffffffffffffffffffffffffffffffffffff16815260200190815260200160002060008381526020019081526020016000206000905550505050565b6000600160088054905061231f91906136c8565b905060006009600084815260200190815260200160002054905060006008838154811061234f5761234e613031565b5b90600052602060002001549050806008838154811061237157612370613031565b5b9060005260206000200181905550816009600083815260200190815260200160002081905550600960008581526020019081526020016000206000905560088054806123c0576123bf6136fc565b5b6001900381819060005260206000200160009055905550505050565b60006123e783610caf565b905081600660008573ffffffffffffffffffffffffffffffffffffffff1673ffffffffffffffffffffffffffffffffffffffff168152602001908152602001600020600083815260200190815260200160002081905550806007600084815260200190815260200160002081905550505050565b6000808273ffffffffffffffffffffffffffffffffffffffff163b119050919050565b6000604051905090565b600080fd5b600080fd5b60007fffffffff0000000000000000000000000000000000000000000000000000000082169050919050565b6124c781612492565b81146124d257600080fd5b50565b6000813590506124e4816124be565b92915050565b600060208284031215612500576124ff612488565b5b600061250e848285016124d5565b91505092915050565b60008115159050919050565b61252c81612517565b82525050565b60006020820190506125476000830184612523565b92915050565b600081519050919050565b600082825260208201905092915050565b60005b8381101561258757808201518184015260208101905061256c565b60008484015250505050565b6000601f19601f8301169050919050565b60006125af8261254d565b6125b98185612558565b93506125c9818560208601612569565b6125d281612593565b840191505092915050565b600060208201905081810360008301526125f781846125a4565b905092915050565b6000819050919050565b612612816125ff565b811461261d57600080fd5b50565b60008135905061262f81612609565b92915050565b60006020828403121561264b5761264a612488565b5b600061265984828501612620565b91505092915050565b600073ffffffffffffffffffffffffffffffffffffffff82169050919050565b600061268d82612662565b9050919050565b61269d81612682565b82525050565b60006020820190506126b86000830184612694565b92915050565b6126c781612682565b81146126d257600080fd5b50565b6000813590506126e4816126be565b92915050565b6000806040838503121561270157612700612488565b5b600061270f858286016126d5565b925050602061272085828601612620565b9150509250929050565b612733816125ff565b82525050565b600060208201905061274e600083018461272a565b92915050565b60008060006060848603121561276d5761276c612488565b5b600061277b868287016126d5565b935050602061278c868287016126d5565b925050604061279d86828701612620565b9150509250925092565b6000602082840312156127bd576127bc612488565b5b60006127cb848285016126d5565b91505092915050565b6127dd81612517565b81146127e857600080fd5b50565b6000813590506127fa816127d4565b92915050565b6000806040838503121561281757612816612488565b5b6000612825858286016126d5565b9250506020612836858286016127eb565b9150509250929050565b600080fd5b600080fd5b7f4e487b7100000000000000000000000000000000000000000000000000000000600052604160045260246000fd5b61288282612593565b810181811067ffffffffffffffff821117156128a1576128a061284a565b5b80604052505050565b60006128b461247e565b90506128c08282612879565b919050565b600067ffffffffffffffff8211156128e0576128df61284a565b5b6128e982612593565b9050602081019050919050565b82818337600083830152505050565b6000612918612913846128c5565b6128aa565b90508281526020810184848401111561293457612933612845565b5b61293f8482856128f6565b509392505050565b600082601f83011261295c5761295b612840565b5b813561296c848260208601612905565b91505092915050565b6000806000806080858703121561298f5761298e612488565b5b600061299d878288016126d5565b94505060206129ae878288016126d5565b93505060406129bf87828801612620565b925050606085013567ffffffffffffffff8111156129e0576129df61248d565b5b6129ec87828801612947565b91505092959194509250565b60008060408385031215612a0f57612a0e612488565b5b6000612a1d858286016126d5565b9250506020612a2e858286016126d5565b9150509250929050565b7f4e487b7100000000000000000000000000000000000000000000000000000000600052602260045260246000fd5b60006002820490506001821680612a7f57607f821691505b602082108103612a9257612a91612a38565b5b50919050565b7f4552433732313a20617070726f76616c20746f2063757272656e74206f776e6560008201527f7200000000000000000000000000000000000000000000000000000000000000602082015250565b6000612af4602183612558565b9150612aff82612a98565b604082019050919050565b60006020820190508181036000830152612b2381612ae7565b9050919050565b7f4552433732313a20617070726f76652063616c6c6572206973206e6f7420746f60008201527f6b656e206f776e6572206f7220617070726f76656420666f7220616c6c000000602082015250565b6000612b86603d83612558565b9150612b9182612b2a565b604082019050919050565b60006020820190508181036000830152612bb581612b79565b9050919050565b7f4163636573735469636b65743a20496e73756666696369656e74207061796d6560008201527f6e74000000000000000000000000000000000000000000000000000000000000602082015250565b6000612c18602283612558565b9150612c2382612bbc565b604082019050919050565b60006020820190508181036000830152612c4781612c0b565b9050919050565b7f4163636573735469636b65743a205573657220616c7265616479206f776e732060008201527f6120746f6b656e00000000000000000000000000000000000000000000000000602082015250565b6000612caa602783612558565b9150612cb582612c4e565b604082019050919050565b60006020820190508181036000830152612cd981612c9d565b9050919050565b7f4163636573735469636b65743a204d6178696d756d20737570706c79206f662060008201527f746f6b656e732072656163686564000000000000000000000000000000000000602082015250565b6000612d3c602e83612558565b9150612d4782612ce0565b604082019050919050565b60006020820190508181036000830152612d6b81612d2f565b9050919050565b7f4e487b7100000000000000000000000000000000000000000000000000000000600052601160045260246000fd5b6000612dac826125ff565b91507fffffffffffffffffffffffffffffffffffffffffffffffffffffffffffffffff8203612dde57612ddd612d72565b5b600182019050919050565b7f4552433732313a2063616c6c6572206973206e6f7420746f6b656e206f776e6560008201527f72206f7220617070726f76656400000000000000000000000000000000000000602082015250565b6000612e45602d83612558565b9150612e5082612de9565b604082019050919050565b60006020820190508181036000830152612e7481612e38565b9050919050565b7f4163636573735469636b65743a2063616c6c6572206973206e6f74207468652060008201527f636f6e7472616374206f776e6572000000000000000000000000000000000000602082015250565b6000612ed7602e83612558565b9150612ee282612e7b565b604082019050919050565b60006020820190508181036000830152612f0681612eca565b9050919050565b7f455243373231456e756d657261626c653a206f776e657220696e646578206f7560008201527f74206f6620626f756e6473000000000000000000000000000000000000000000602082015250565b6000612f69602b83612558565b9150612f7482612f0d565b604082019050919050565b60006020820190508181036000830152612f9881612f5c565b9050919050565b7f455243373231456e756d657261626c653a20676c6f62616c20696e646578206f60008201527f7574206f6620626f756e64730000000000000000000000000000000000000000602082015250565b6000612ffb602c83612558565b915061300682612f9f565b604082019050919050565b6000602082019050818103600083015261302a81612fee565b9050919050565b7f4e487b7100000000000000000000000000000000000000000000000000000000600052603260045260246000fd5b7f4552433732313a20696e76616c696420746f6b656e2049440000000000000000600082015250565b6000613096601883612558565b91506130a182613060565b602082019050919050565b600060208201905081810360008301526130c581613089565b9050919050565b7f4552433732313a2061646472657373207a65726f206973206e6f74206120766160008201527f6c6964206f776e65720000000000000000000000000000000000000000000000602082015250565b6000613128602983612558565b9150613133826130cc565b604082019050919050565b600060208201905081810360008301526131578161311b565b9050919050565b7f546f6b656e20646f6573206e6f74206578697374000000000000000000000000600082015250565b6000613194601483612558565b915061319f8261315e565b602082019050919050565b600060208201905081810360008301526131c381613187565b9050919050565b600081905092915050565b60006131e08261254d565b6131ea81856131ca565b93506131fa818560208601612569565b80840191505092915050565b600061321282856131d5565b915061321e82846131d5565b91508190509392505050565b7f4552433732313a207472616e736665722066726f6d20696e636f72726563742060008201527f6f776e6572000000000000000000000000000000000000000000000000000000602082015250565b6000613286602583612558565b91506132918261322a565b604082019050919050565b600060208201905081810360008301526132b581613279565b9050919050565b7f4552433732313a207472616e7366657220746f20746865207a65726f2061646460008201527f7265737300000000000000000000000000000000000000000000000000000000602082015250565b6000613318602483612558565b9150613323826132bc565b604082019050919050565b600060208201905081810360008301526133478161330b565b9050919050565b7f4552433732313a20617070726f766520746f2063616c6c657200000000000000600082015250565b6000613384601983612558565b915061338f8261334e565b602082019050919050565b600060208201905081810360008301526133b381613377565b9050919050565b7f4552433732313a207472616e7366657220746f206e6f6e20455243373231526560008201527f63656976657220696d706c656d656e7465720000000000000000000000000000602082015250565b6000613416603283612558565b9150613421826133ba565b604082019050919050565b6000602082019050818103600083015261344581613409565b9050919050565b7f4e487b7100000000000000000000000000000000000000000000000000000000600052601260045260246000fd5b7f455243373231456e756d657261626c653a20636f6e736563757469766520747260008201527f616e7366657273206e6f7420737570706f727465640000000000000000000000602082015250565b60006134d7603583612558565b91506134e28261347b565b604082019050919050565b60006020820190508181036000830152613506816134ca565b9050919050565b600081519050919050565b600082825260208201905092915050565b60006135348261350d565b61353e8185613518565b935061354e818560208601612569565b61355781612593565b840191505092915050565b60006080820190506135776000830187612694565b6135846020830186612694565b613591604083018561272a565b81810360608301526135a38184613529565b905095945050505050565b6000815190506135bd816124be565b92915050565b6000602082840312156135d9576135d8612488565b5b60006135e7848285016135ae565b91505092915050565b7f4552433732313a206d696e7420746f20746865207a65726f2061646472657373600082015250565b6000613626602083612558565b9150613631826135f0565b602082019050919050565b6000602082019050818103600083015261365581613619565b9050919050565b7f4552433732313a20746f6b656e20616c7265616479206d696e74656400000000600082015250565b6000613692601c83612558565b915061369d8261365c565b602082019050919050565b600060208201905081810360008301526136c181613685565b9050919050565b60006136d3826125ff565b91506136de836125ff565b92508282039050818111156136f6576136f5612d72565b5b92915050565b7f4e487b7100000000000000000000000000000000000000000000000000000000600052603160045260246000fdfea26469706673582212202fcc5d1d542a6b2c4ab38ce74161045c3db3383e5abbd0ff521436b05c3497bc64736f6c63430008120033",
  "devdoc": {
    "events": {
      "Approval(address,address,uint256)": {
        "details": "Emitted when `owner` enables `approved` to manage the `tokenId` token."
      },
      "ApprovalForAll(address,address,bool)": {
        "details": "Emitted when `owner` enables or disables (`approved`) `operator` to manage all of its assets."
      },
      "Transfer(address,address,uint256)": {
        "details": "Emitted when `tokenId` token is transferred from `from` to `to`."
      }
    },
    "kind": "dev",
    "methods": {
      "approve(address,uint256)": {
        "details": "See {IERC721-approve}."
      },
      "balanceOf(address)": {
        "details": "See {IERC721-balanceOf}."
      },
      "getApproved(uint256)": {
        "details": "See {IERC721-getApproved}."
      },
      "isApprovedForAll(address,address)": {
        "details": "See {IERC721-isApprovedForAll}."
      },
      "name()": {
        "details": "See {IERC721Metadata-name}."
      },
      "ownerOf(uint256)": {
        "details": "See {IERC721-ownerOf}."
      },
      "safeTransferFrom(address,address,uint256)": {
        "details": "See {IERC721-safeTransferFrom}."
      },
      "safeTransferFrom(address,address,uint256,bytes)": {
        "details": "See {IERC721-safeTransferFrom}."
      },
      "setApprovalForAll(address,bool)": {
        "details": "See {IERC721-setApprovalForAll}."
      },
      "supportsInterface(bytes4)": {
        "details": "See {IERC165-supportsInterface}."
      },
      "symbol()": {
        "details": "See {IERC721Metadata-symbol}."
      },
      "tokenByIndex(uint256)": {
        "details": "See {IERC721Enumerable-tokenByIndex}."
      },
      "tokenOfOwnerByIndex(address,uint256)": {
        "details": "See {IERC721Enumerable-tokenOfOwnerByIndex}."
      },
      "totalSupply()": {
        "details": "See {IERC721Enumerable-totalSupply}."
      },
      "transferFrom(address,address,uint256)": {
        "details": "See {IERC721-transferFrom}."
      }
    },
    "version": 1
  },
  "userdoc": {
    "kind": "user",
    "methods": {},
    "version": 1
  },
  "storageLayout": {
    "storage": [
      {
        "astId": 25,
        "contract": "contracts/AccessTicket.sol:AccessTicket",
        "label": "_name",
        "offset": 0,
        "slot": "0",
        "type": "t_string_storage"
      },
      {
        "astId": 27,
        "contract": "contracts/AccessTicket.sol:AccessTicket",
        "label": "_symbol",
        "offset": 0,
        "slot": "1",
        "type": "t_string_storage"
      },
      {
        "astId": 31,
        "contract": "contracts/AccessTicket.sol:AccessTicket",
        "label": "_owners",
        "offset": 0,
        "slot": "2",
        "type": "t_mapping(t_uint256,t_address)"
      },
      {
        "astId": 35,
        "contract": "contracts/AccessTicket.sol:AccessTicket",
        "label": "_balances",
        "offset": 0,
        "slot": "3",
        "type": "t_mapping(t_address,t_uint256)"
      },
      {
        "astId": 39,
        "contract": "contracts/AccessTicket.sol:AccessTicket",
        "label": "_tokenApprovals",
        "offset": 0,
        "slot": "4",
        "type": "t_mapping(t_uint256,t_address)"
      },
      {
        "astId": 45,
        "contract": "contracts/AccessTicket.sol:AccessTicket",
        "label": "_operatorApprovals",
        "offset": 0,
        "slot": "5",
        "type": "t_mapping(t_address,t_mapping(t_address,t_bool))"
      },
      {
        "astId": 1075,
        "contract": "contracts/AccessTicket.sol:AccessTicket",
        "label": "_ownedTokens",
        "offset": 0,
        "slot": "6",
        "type": "t_mapping(t_address,t_mapping(t_uint256,t_uint256))"
      },
      {
        "astId": 1079,
        "contract": "contracts/AccessTicket.sol:AccessTicket",
        "label": "_ownedTokensIndex",
        "offset": 0,
        "slot": "7",
        "type": "t_mapping(t_uint256,t_uint256)"
      },
      {
        "astId": 1082,
        "contract": "contracts/AccessTicket.sol:AccessTicket",
        "label": "_allTokens",
        "offset": 0,
        "slot": "8",
        "type": "t_array(t_uint256)dyn_storage"
      },
      {
        "astId": 1086,
        "contract": "contracts/AccessTicket.sol:AccessTicket",
        "label": "_allTokensIndex",
        "offset": 0,
        "slot": "9",
        "type": "t_mapping(t_uint256,t_uint256)"
      },
      {
        "astId": 2917,
        "contract": "contracts/AccessTicket.sol:AccessTicket",
        "label": "_owner",
        "offset": 0,
        "slot": "10",
        "type": "t_address_payable"
      },
      {
        "astId": 2919,
        "contract": "contracts/AccessTicket.sol:AccessTicket",
        "label": "_totalSupply",
        "offset": 0,
        "slot": "11",
        "type": "t_uint256"
      },
      {
        "astId": 2922,
        "contract": "contracts/AccessTicket.sol:AccessTicket",
        "label": "_ticketPrice",
        "offset": 0,
        "slot": "12",
        "type": "t_uint256"
      }
    ],
    "types": {
      "t_address": {
        "encoding": "inplace",
        "label": "address",
        "numberOfBytes": "20"
      },
      "t_address_payable": {
        "encoding": "inplace",
        "label": "address payable",
        "numberOfBytes": "20"
      },
      "t_array(t_uint256)dyn_storage": {
        "base": "t_uint256",
        "encoding": "dynamic_array",
        "label": "uint256[]",
        "numberOfBytes": "32"
      },
      "t_bool": {
        "encoding": "inplace",
        "label": "bool",
        "numberOfBytes": "1"
      },
      "t_mapping(t_address,t_bool)": {
        "encoding": "mapping",
        "key": "t_address",
        "label": "mapping(address => bool)",
        "numberOfBytes": "32",
        "value": "t_bool"
      },
      "t_mapping(t_address,t_mapping(t_address,t_bool))": {
        "encoding": "mapping",
        "key": "t_address",
        "label": "mapping(address => mapping(address => bool))",
        "numberOfBytes": "32",
        "value": "t_mapping(t_address,t_bool)"
      },
      "t_mapping(t_address,t_mapping(t_uint256,t_uint256))": {
        "encoding": "mapping",
        "key": "t_address",
        "label": "mapping(address => mapping(uint256 => uint256))",
        "numberOfBytes": "32",
        "value": "t_mapping(t_uint256,t_uint256)"
      },
      "t_mapping(t_address,t_uint256)": {
        "encoding": "mapping",
        "key": "t_address",
        "label": "mapping(address => uint256)",
        "numberOfBytes": "32",
        "value": "t_uint256"
      },
      "t_mapping(t_uint256,t_address)": {
        "encoding": "mapping",
        "key": "t_uint256",
        "label": "mapping(uint256 => address)",
        "numberOfBytes": "32",
        "value": "t_address"
      },
      "t_mapping(t_uint256,t_uint256)": {
        "encoding": "mapping",
        "key": "t_uint256",
        "label": "mapping(uint256 => uint256)",
        "numberOfBytes": "32",
        "value": "t_uint256"
      },
      "t_string_storage": {
        "encoding": "bytes",
        "label": "string",
        "numberOfBytes": "32"
      },
      "t_uint256": {
        "encoding": "inplace",
        "label": "uint256",
        "numberOfBytes": "32"
      }
    }
  }
}